:020000040800F2
:10000000280B002049010008510100085301000895
:1000100000000000000000000000000000000000E0
:100020000000000000000000000000005501000872
:1000300000000000000000005701000859010008FE
:100040005B0100085B0100085B0100085B01000820
:100050005B0100085B0100085B0100085B01000810
:10006000000000005B0100085B0100085B01000864
:100070005B0100085B0100085B0100085B010008F0
:100080005B0100085B0100085B0100085B010008E0
:10009000000000005B0100085B0100085B01000834
:1000A0005B0100085B0100085B0100085B010008C0
:1000B0005B0100085B010008000000000000000078
:1000C00000F002F800F030F80CA030C8083824180E
:1000D0002D18671EA246AB4654465D46AC4201D180
:1000E00000F022F87E460F3EB6460FCC0126334282
:1000F00000D0FB1A3343A246AB46184780020000EB
:10010000900200000023002400250026103A01D3AD
:1001100078C1FBD8520700D330C100D50B607047BF
:100120001FB51FBD10B510BD00F02DF81146FFF72B
:10013000F7FF00F065F800F045F803B4FFF7F2FFB1
:1001400003BC00F04BF80000074880470748004711
:10015000FEE7FEE7FEE7FEE7FEE7FEE704480549A7
:10016000054A064B70470000ED010008C100000879
:1001700028050020280B0020280700202807002041
:10018000704770477047754600F024F8AE4605008A
:1001900069465346C008C000854618B020B5FFF731
:1001A000DDFF60BCB64600260027C0C5C0C5C0C57F
:1001B000C0C5C0C5C0C5C0C5C0C5403D490849008F
:1001C0008D46704710B50446C046C0462046FFF72E
:1001D000B4FF10BD004870470000002001491820FE
:1001E000ABBEFEE726000200704700000120C006FB
:1001F000014908607047C04608ED00E0FEE7FEE7F1
:1002000082B000F06BF8134F019713480090134829
:1002100013A18024002522462B4600F09AF81249AB
:100220000860124E30461430391D00F088F8104F27
:10023000019710480090104810A122462B4600F06C
:1002400088F8104908602836391D304600F077F8E4
:10025000FEE7C0466402002060000020FD010008A7
:100260005461736B3100000060020020C004002064
:100270009404002090020020FF0100085461736B79
:100280003200000090040020F0B581B000930546D4
:10029000079FB86992001018061F072086430020A8
:1002A000069C0A5C3B181A770A5C002A03D0421CA1
:1002B0000F281046F5D32B2000213954381D00F0AB
:1002C0003BF83F6130462946009A00F015F8386047
:1002D000002C00D0276001B0F0BD0000B0B50024B4
:1002E000034D281900F020F81434642CF9D1B0BD66
:1002F000C0040020FEE7000010B501239943044626
:10030000083C2160011F1B060B6001460C39054BA0
:100310000B60014620390A600F21C943890040184B
:1003200010BDC046F5020008002102460832CB434A
:100330000EC0026042607047002101617047426850
:10034000936808614A608B6003685B1C036091607E
:100350007047B0B584B0089C002C09D0099D002DD1
:1003600006D0AC61019503AC0094FFF78DFF01E06E
:1003700000200390039804B0B0BD00008C03000877
:0C03800000000020280B00000401000811
:04000005080000C12E
:00000001FF
